:1000000014C021C020C01FC01EC01DC01CC01BC00A
:100010001AC019C018C017C016C015C014C013C02C
:1000200012C011C010C00FC00EC011241FBECFEDF2
:10003000CDBF20E0A0E6B0E001C01D92A036B2071F
:10004000E1F775D19CC1DCCFCF93DF9300D0CDB762
:10005000DD27C39A20E2298382E08A83C3988981BD
:100060008FB991E19DB983E18DB99DB98DB99DB9E4
:100070008DB99DB98DB99DB98DB99DB98DB99DB910
:100080008DB99DB98DB93A813FB99DB98DB99DB9E9
:100090008DB99DB98DB99DB98DB99DB98DB99DB9F0
:1000A0008DB99DB98DB99DB98DB9C39A298333E0B6
:1000B0003A83C39839813FB99DB98DB99DB98DB93E
:1000C0009DB98DB99DB98DB99DB98DB99DB98DB9C0
:1000D0009DB98DB99DB98DB93A813FB99DB98DB999
:1000E0009DB98DB99DB98DB99DB98DB99DB98DB9A0
:1000F0009DB98DB99DB98DB99DB98DB9C39A31E3BB
:1001000039832A83C39829812FB99DB98DB99DB9A7
:100110008DB99DB98DB99DB98DB99DB98DB99DB96F
:100120008DB99DB98DB99DB98DB92A812FB99DB968
:100130008DB99DB98DB99DB98DB99DB98DB99DB94F
:100140008DB99DB98DB99DB98DB99DB98DB9C39A38
:1001500026E2298327E02A83C39829812FB99DB9F4
:100160008DB99DB98DB99DB98DB99DB98DB99DB91F
:100170008DB99DB98DB99DB98DB99DB98DB92A81BA
:100180002FB99DB98DB99DB98DB99DB98DB99DB95D
:100190008DB99DB98DB99DB98DB99DB98DB99DB9EF
:1001A0008DB9C39A21E229831A82C39829812FB974
:1001B0009DB98DB99DB98DB99DB98DB99DB98DB9CF
:1001C0009DB98DB99DB98DB99DB98DB99DB98DB9BF
:1001D0002A812FB99DB98DB99DB98DB99DB98DB9B8
:1001E0009DB98DB99DB98DB99DB98DB99DB98DB99F
:1001F0009DB98DB9C39A8FEF000000000000000088
:1002000000000000000000000000000000000000EE
:10021000000000000000815079F7C29ACE5FCDBF88
:10022000DF91CF910895CF93DF93CDB7DD27C152F2
:10023000CDBFFE01319681E2DF011D928A95E9F77B
:1002400081E68983C398AE014E5D5F4F91E183E102
:1002500021912FB931E19DB923E18DB99DB98DB9B6
:100260009DB98DB99DB98DB99DB98DB99DB98DB91E
:100270009DB98DB99DB98DB9E417F50749F7C39AB2
:1002800087E2898380E78A83C39889818FB93DB9E2
:100290002DB93DB92DB93DB92DB93DB92DB93DB9EE
:1002A0002DB93DB92DB93DB92DB93DB92DB98A81C9
:1002B0008FB93DB92DB93DB92DB93DB92DB93DB96C
:1002C0002DB93DB92DB93DB92DB93DB92DB93DB9BE
:1002D0002DB9C39AC39882EE8FB93DB92DB93DB9F6
:1002E0002DB93DB92DB93DB92DB93DB92DB93DB99E
:1002F0002DB93DB92DB93DB92DB9C39AC39881EE39
:100300008FB93DB92DB93DB92DB93DB92DB93DB91B
:100310002DB93DB92DB93DB92DB93DB92DB93DB96D
:100320002DB9C39ACF5DCDBFDF91CF91089580E8FD
:1003300086BD16BC6C9AC79ABF9AC798C39ABB9AD7
:10034000C69ABE9AC698C29ABA9AC2988FE000001E
:10035000000000000000000000000000000000009D
:10036000000000000000000000000000815079F74C
:100370006BDE01C00000B499FDCF55DFFBCFF894D0
:02038000FFCFAD
:00000001FF
