:100000000EC042C125C0A5C123C089C121C020C0E6
:100010001FC01EC06EC178C11BC01AC019C01124F8
:100020001FBECFEDCDBF10E0A0E6B0E0ECEAF3E0FC
:1000300002C005900D92A236B107D9F720E0A2E6E2
:10004000B0E001C01D92AB36B207E1F751D0ACC1B0
:10005000D7CF81E090E0A0D18093690080E090E06C
:100060009BD180936A0087E086BD16BC8CB5806802
:100070008CBD83B7816083BF83B7826083BF89B73C
:10008000806189BF89B7886089BF89B7826089BF6D
:100090008091640089BD8091630088BD80B78860CD
:1000A00080BF80B7816080BF80E58EBD89B78064E6
:1000B00089BF87B5806887BD87B5846087BD87B5F0
:1000C000826087BD8CB58F778CBD85B7816085BF19
:1000D00085B7826085BF8BB780648BBF6D9A6B9A42
:1000E000C39AC49AC19ABB9ABC9AB99A7894089553
:1000F000B0DFFFCFF894823008F482E08093610093
:100100007894089580916000823099F41092600094
:10011000C19A80B7877F80BF80B78B7F80BF80B751
:10012000826080BF80B7816080BF1FBC84E68EBDC7
:10013000089580916000811115C081E08093600076
:10014000C19A80B7877F80BF80B7846080BF80B747
:100150008D7F80BF80B78E7F80BF1FBC8091610084
:100160008EBD089580916000813099F482E0809383
:100170006000C19880B7886080BF80B78B7F80BFE8
:1001800080B78D7F80BF80B7816080BF1FBC80E556
:100190008EBD0895F894811105C0109264001092EC
:1001A00063000EC0181634F4880F80936400109218
:1001B000630006C0109264008195880F80936300ED
:1001C000789408958091620081110CC09FB1809154
:1001D0006900981358C08FB18093650081E08093C7
:1001E00062000895883020F48F5F80936200089544
:1001F000883079F49FB180916A00981307C08FB15D
:100200008093660089E080936200089510926200F6
:100210000895803120F48F5F8093620008958031CB
:1002200039F48FB18093670081E180936200089573
:10023000883120F48F5F809362000895883139F40B
:100240008FB18093680089E18093620008958032C5
:1002500020F48F5F8093620008958032A1F4E5E678
:10026000F0E090818181890F9281890F9FB1238174
:10027000820F981306C0809167008CDF8091680020
:1002800039DF1092620008951F920F920FB60F92FD
:1002900011242F933F934F935F936F937F938F938B
:1002A0009F93AF93BF93EF93FF938CDFFF91EF91F9
:1002B000BF91AF919F918F917F916F915F914F917E
:1002C0003F912F910F900FBE0F901F901895F894AB
:1002D00088233CF48F57880F80936400109263004A
:1002E00006C0109264008095880F80936300789414
:1002F00008951F920F920FB60F921124C3980F907A
:100300000FBE0F901F9018951F920F920FB60F926D
:100310001124C4980F900FBE0F901F9018951F9234
:100320000F920FB60F9211248F9380916400811168
:10033000C39A809163008111C49A8091640089BD41
:100340008091630088BD8F910F900FBE0F901F901A
:1003500018951F920F920FB60F9211242F933F936F
:100360004F935F936F937F938F939F93AF93BF93BD
:10037000EF93FF93C7DEFF91EF91BF91AF919F91F4
:100380008F917F916F915F914F913F912F910F903E
:100390000FBE0F901F901895E199FECF1FBA8EBB2C
:0C03A000E09A99278DB30895F894FFCFE0
:0203AC000280CD
:00000001FF
