:100000000EC01BC01AC019C018C017C016C015C03A
:1000100014C013C012C011C010C00FC00EC01124F4
:100020001FBECFEDCDBF20E0A0E6B0E001C01D9225
:10003000A936B207E1F706D11AC1E2CFC298699A90
:100040000895C49A10926000089581E08093600042
:10005000C4980895882311F0C29A0895EFCFDF92D3
:10006000EF92FF920F931F93CF93DF9321E02093A2
:100070006000C4986623C1F08C01EC0121966150A8
:100080007E01E60EF11C1EB8F80180818E018FB949
:1000900088E0D82E81E0DEDFD1DFDA94D9F7CE1503
:1000A000DF0511F02196EFCFC49A10926000DF9126
:1000B000CF911F910F91FF90EF90DF900895CF9314
:1000C000DF93CDB7DD27C152CDBFCE01019621E22E
:1000D000FC0111922A95E9F721E6298361E2BFDF4D
:1000E000CF5DCDBFDF91CF910895CF93DF9300D047
:1000F000CDB7DD27806289836A8362E0CE010196F5
:10010000AEDFCE5FCDBFDF91CF91089562E080E09A
:10011000ECDF63E080E0E9DF60E281E1E6DF67E0F9
:1001200086E0E3DF60E081E0E0CFC49A10926000F7
:10013000EDCFCF93DF931F92CDB7DD2782EE89837A
:1001400061E0CE0101968BDF0F90DF91CF91089592
:10015000CF93DF931F92CDB7DD2781EE898361E0D6
:10016000CE0101967CDF0F90DF91CF91089560E77B
:1001700087E0BBDFDEDFECCFA2DFF9CFCF93DF93E9
:1001800000D0CDB7DD2789838FEF8A8362E0CE016F
:10019000019665DF8FB1CE5FCDBFDF91CF9108951E
:1001A0001F93CF93DF931F92CDB7DD27182F69835D
:1001B000E5DF21E030E0698101C0220F6A95EAF7AE
:1001C000622F60956823812F0F90DF91CF911F914F
:1001D0008CCF1F93CF93DF931F92CDB7DD27182FBE
:1001E0006983CCDF21E030E0698101C0220F6A958C
:1001F000EAF7682F622B812F0F90DF91CF911F912B
:1002000074CF8FB1089581E090E029D0809367008A
:1002100080E090E024D08093680080E886BD84E090
:1002200086BD6C9AC29AC49AC19ABA9ABC9AB99A73
:10023000C29878949FE08FE000008150E9F79150D8
:10024000D1F773CFE0DFB399FECF96DFFCCF9FE00D
:100250008FE000008150E9F79150D1F70895E199BE
:10026000FECF1FBA8EBBE09A99278DB30895F894FC
:02027000FFCFBE
:00000001FF
