:100000000EC0D3C125C070C223C054C221C020C0BD
:100010001FC01EC039C243C21BC01AC0D0C11124A8
:100020001FBECFEDCDBF10E0A0E6B0E0E4E5F5E007
:1000300002C005900D92A436B107D9F720E0A4E6DE
:10004000B0E001C01D92AF3BB207E1F709D280C218
:10005000D7CFC19A80B7837F836080BF1FBC84E6FF
:100060008EBD88E390E090936100809360000895D6
:10007000C19A80B7847F846080BF1FBC8091630079
:100080008EBD88E490E090936100809360000895B5
:10009000C19880B7897F896080BF1FBC80E58EBD15
:1000A00089E290E090936100809360008091640009
:1000B00090916200891303C08EB1807F8EB99093B6
:1000C0006400089510926A0010926900109268000E
:1000D0001092670010926B0010926C00089590913E
:1000E0006C00E92FF0E0E256FF4F80839F5F909312
:1000F0006C000895FC01228120936D008381809320
:100100006E0081E0809367000895CF93DF93F894A9
:10011000C0916C0023E730E08EE990E04C2F50E076
:10012000BC01C90104D2C0936B0010926C0078949A
:10013000C0E0E7C0EC2FF0E0ED58FF4FD0814091D8
:100140006A00411105C080919400D8130AC010C004
:10015000413039F481E090E020919500D21751F0C0
:1001600004C081E090E0423028F480E090E002C0DA
:1001700081E090E0411106C021E030E090916900FB
:10018000992311F020E030E0922F411106C021E0C8
:1001900030E050916800552311F020E030E08823D2
:1001A00049F0E42FF0E0E656FF4FD0834F5F4093D5
:1001B0006A0002C010926A00911133C04091690038
:1001C000411105C080919400D8130AC010C041307D
:1001D00039F481E090E030919500D31751F004C0DC
:1001E00081E090E0423028F480E090E002C081E0BD
:1001F00090E0211107C021E030E0442329F020E005
:1002000030E002C021E030E0882349F0E42FF0E044
:10021000EA56FF4FD0834F5F4093690002C01092AF
:100220006900211128C020916800211105C080912A
:100230009400D8130AC010C0213039F481E090E056
:1002400030919500D31751F004C081E090E0223046
:1002500028F480E090E002C081E090E0882349F03B
:10026000E22FF0E0E159FF4FD0832F5F2093680029
:1002700002C01092680080916A00853098F08091E9
:100280009B0090919A00890F90919C00890F90910A
:100290009D00890F8D1304C08AE990E02BDF02C016
:1002A00010926A0080916900853098F080919700E3
:1002B00090919600890F90919800890F90919900E4
:1002C000890F8D1304C086E990E014DF02C01092FC
:1002D000690080916800853098F08091700090915D
:1002E0006F00890F90917100890F90917200890FB2
:1002F0008D1304C08FE690E0FDDE02C0109268000E
:10030000CF5F80916B00C81708F414CFDF91CF91B5
:10031000089589E290E09093610080936000D2DEBE
:1003200081E090E00DD18093940080E090E008D1CE
:10033000809395008CB580688CBD83B7816083BF46
:1003400083B7826083BF89B7806189BF89B78860BE
:1003500089BF89B7826089BF8091660089BD80911D
:10036000650088BD80B7886080BF80B7816080BF2E
:1003700080E58EBD89B7806489BF87B5806887BDF9
:1003800087B5846087BD87B5826087BD8CB58F7760
:100390008CBD6D9A6B9A6E9A709AC39AC49AC19AE0
:1003A000BB9ABC9AB99A789408951F920F920FB68F
:1003B0000F9211240F900FBE0F901F9018951F924F
:1003C0000F920FB60F9211242F933F934F935F9389
:1003D0006F937F938F939F93AF93BF93EF93FF930D
:1003E000809162008F5F809362008FB178DE769A91
:1003F000709AFF91EF91BF91AF919F918F917F91F3
:100400006F915F914F913F912F910F900FBE0F9081
:100410001F901895823008F482E0893C08F088EC3F
:10042000F8948093630078940895E0916000F091CF
:1004300061000994F894811103C01092660005C010
:10044000181634F4880F809366001092650006C079
:10045000109266008195880F8093650078940895C6
:1004600058DF80916C00811150DE809167008130EF
:10047000C1F71092670080916D00DCDF1092670079
:1004800080916E00C7DFEDCF1F920F920FB60F92D3
:100490001124C3980F900FBE0F901F9018951F92B4
:1004A0000F920FB60F921124C4980F900FBE0F90A9
:1004B0001F9018951F920F920FB60F9211248F93D1
:1004C000809166008111C39A809165008111C49A60
:1004D0008091660089BD8091650088BD8F910F90E5
:1004E0000FBE0F901F9018951F920F920FB60F928C
:1004F00011242F933F934F935F936F937F938F9329
:100500009F93AF93BF93EF93FF938FDFFF91EF9193
:10051000BF91AF919F918F917F916F915F914F911B
:100520003F912F910F900FBE0F901F901895FB01D8
:10053000DC0102C001900D9241505040D8F708955F
:10054000E199FECF1FBA8EBBE09A99278DB308952B
:04055000F894FFCF4D
:040554002900013F3A
:00000001FF
