:100000000EC029C125C07AC123C05EC121C020C055
:100010001FC01EC043C14DC11BC01AC019C011244E
:100020001FBECFEDCDBF10E0A0E6B0E0E6E5F3E007
:1000300002C005900D92A236B107D9F720E0A2E6E2
:10004000B0E001C01D92AB36B207E1F74ED081C1DE
:10005000D7CF81E090E075D18093690080E090E097
:1000600070D180936A008CB580688CBD83B7816045
:1000700083BF83B7826083BF89B7806189BF89B737
:10008000886089BF89B7826089BF8091640089BD1B
:100090008091630088BD80B7886080BF80B7816031
:1000A00080BF80E58EBD89B7806489BF87B58068D1
:1000B00087BD87B5846087BD87B5826087BD8CB5F5
:1000C0008F778CBD85B7816085BF85B7826085BF1E
:1000D0008BB780648BBF6D9A6B9AC39AC49AC19A8E
:1000E000BB9ABC9AB99A78940895B3DFFFCFF8947D
:1000F000823008F482E080936100789408958091C2
:100100006000823091F410926000C19A80B7877FBE
:1001100080BF80B78B7F80BF80B7826080BF80B791
:10012000816080BF1FBC84E62EC080916000811179
:1001300014C081E080936000C19A80B7877F80BF40
:1001400080B7846080BF80B78D7F80BF80B78E7F8F
:1001500080BF1FBC8091610016C08091600081301B
:1001600099F482E080936000C19880B7886080BF76
:1001700080B78B7F80BF80B78D7F80BF80B7816065
:1001800080BF1FBC80E58EBD0895F894811103C027
:100190001092640005C0181634F4880F8093640030
:1001A0001092630006C0109264008195880F8093BE
:1001B0006300789408958091620081110AC09FB114
:1001C00080916900981346C08FB18093650081E0EB
:1001D00003C0883020F48F5F8093620008958830D8
:1001E00051F49FB180916A00981332C08FB180930F
:1001F000660089E0F1CF803108F4EDCF803129F439
:100200008FB18093670081E1E7CF883108F4E3CFB5
:10021000883129F48FB18093680089E1DDCF803285
:1002200008F4D9CF8032B1F48091660090916500D6
:10023000890F90916700890F9FB120916800820F0C
:10024000891306C080916700A0DF809168004FDFAE
:100250001092620008951F920F920FB60F92112410
:100260002F933F934F935F936F937F938F939F93BE
:10027000AF93BF93EF93FF939EDFFF91EF91BF91F9
:10028000AF919F918F917F916F915F914F913F912E
:100290002F910F900FBE0F901F9018951F920F92E5
:1002A0000FB60F921124C3980F900FBE0F901F909E
:1002B00018951F920F920FB60F921124C4980F90A9
:1002C0000FBE0F901F9018951F920F920FB60F92AE
:1002D00011248F93809164008111C39A80916300EF
:1002E0008111C49A8091640089BD8091630088BDAA
:1002F0008F910F900FBE0F901F9018951F920F9225
:100300000FB60F9211242F933F934F935F936F93E8
:100310007F938F939F93AF93BF93EF93FF93EFDE02
:10032000FF91EF91BF91AF919F918F917F916F91CD
:100330005F914F913F912F910F900FBE0F901F90A3
:100340001895E199FECF1FBA8EBBE09A99278DB31D
:060350000895F894FFCFB0
:02035600028023
:00000001FF
